:020000040800F2
:10000000484700205D020008012A0008012400087A
:100010002D28000889090008B131000800000000FF
:100020000000000000000000000000009D0100082A
:10003000F10C000800000000F9010008012B000885
:1000400077020008770200087702000877020008AC
:10005000770200087702000877020008F30C000816
:10006000770200087702000877020008770200088C
:10007000770200087702000877020008770200087C
:10008000770200087702000877020008770200086C
:10009000770200087702000877020008F90C0008D0
:1000A00077020008D12B00087702000877020008C9
:1000B0007702000877020008DD2B000877020008AD
:1000C000770200087702000877020008770200082C
:1000D0007702000899310008A5310008770200086E
:1000E000770200087702000877020008770200080C
:1000F00077020008770200087702000877020008FC
:1001000077020008770200087702000877020008EB
:1001100077020008770200087702000877020008DB
:1001200077020008770200087702000877020008CB
:1001300077020008770200087702000877020008BB
:1001400077020008770200087702000877020008AB
:10015000770200087702000877020008770200089B
:10016000770200087702000877020008770200088B
:1001700077020008770200087702000800000000FC
:100180007702000877020008DFF80CD000F08EFB41
:1001900000480047D53A0008484700202C4B196812
:1001A0000868B0E8F04F80F30988BFF36F8F4FF015
:1001B000000080F3118870470000000008480068C4
:1001C000006880F308884FF0000080F3148862B65E
:1001D00061B6BFF34F8FBFF36F8F00DF00BF00BF6B
:1001E00008ED00E0DFF80C00016841F470010160E7
:1001F000704700BF88ED00E0EFF30980BFF36F8F19
:10020000134B1A681EF0100F08BF20ED108A20E96A
:10021000F04F106009B44FF0500080F31188BFF325
:100220004F8FBFF36F8F03F0FFFF4FF0000080F39D
:10023000118809BC19680868B0E8F04F1EF0100F6B
:1002400008BFB0EC108A80F30988BFF36F8F704746
:100250001C000020EFF3058070470000064880472F
:1002600006480047FEE7FEE7FEE7FEE7FEE7FEE79B
:10027000FEE7FEE7FEE7FEE7C12B00088901000864
:100280002DE9F05F0546002092469B4688460646CB
:10029000814640241BE0284641464746224600F05E
:1002A0008AF953465A46C01A914110D3114618464E
:1002B000224600F071F92D1A67EB01084F462246DD
:1002C0000120002100F068F917EB00094E41201EC3
:1002D000A4F10104DFDC484631462A464346BDE826
:1002E000F09F40EA01039B0703D009E008C9121FF1
:1002F00008C0042AFAD203E011F8013B00F8013BE0
:10030000521EF9D27047D2B201E000F8012B491E0B
:10031000FBD270470022F6E710B513460A460446A2
:100320001946FFF7F0FF204610BD2DE9FE4F81EA88
:10033000030404F0004421F0004100944FF0000B4E
:1003400023F0004350EA01045ED052EA03045BD07C
:10035000C3F30A54C1F30A552C44A4F2F3340194B4
:10036000A0FB0254C1F3130141F48011C3F3130342
:1003700043F4801301FB024400FB034E840A970AF6
:1003800044EA815447EA8357A4FB076802958D0A23
:1003900005FB07854FEA932C04FB0C542705029DAF
:1003A0004FEA065847EA1637B5EB08056EEB070C1F
:1003B000870E920E47EA811742EA8312A7FB0201D9
:1003C000B6EB0B0164EB00042B0D43EA0C335E1813
:1003D00044EB1C50DA465146E7FB0201C5F3130417
:1003E0004FEA0B3343EA14534FEA0432019C43EAC9
:1003F0000603A4F10C040294009CCDE900B400F0C3
:1004000030F903B0BDE8F08F00200146F9E72DE98F
:10041000F04D81EA030404F0004B21F0004514463E
:100420004FF0000A23F0004150EA050220D054EAC0
:1004300001021DD0C5F30A570246C5F31303C1F3E9
:100440001300C1F30A5640F4801543F48013A7EB60
:100450000608101BD64608F2FD3873EB050002D3E0
:1004600008F1010801E092185B41B8F1000F03DACE
:1004700000200146BDE8F08D00204FF480110646B3
:1004800084460EE0171B73EB050705D3121B63EBC5
:10049000050306434CEA010C49084FEA3000921864
:1004A0005B4150EA0107EDD152EA030012D082EA23
:1004B000040083EA0501084305D0101BAB4106D2B6
:1004C0000122002306E000224FF0004302E06FF01B
:1004D000010253101AEB06004CEB085110EB0A0016
:1004E00041EB0B01BDE8F04D00F0ACB80EB5C10F0B
:1004F00080EAE0700844CA07002140F233438DE8E7
:100500000E000A460B4600F0ACF803B000BD00F048
:10051000004230F000400AD0C10D01F56071C0F317
:10052000160042EA0151C2084007114370470020FB
:100530000146704701F0004330B421F0004150EA19
:10054000010206D00A0DA2F56072C1F31301002A60
:1005500002DC30BC00207047440F44EAC104C100F3
:10056000E01830BC00EBC25000F035B830B50B4697
:10057000014600202022012409E021FA02F59D42D3
:1005800005D303FA02F5491B04FA02F52844151EA7
:10059000A2F10102F1DC30BD202A04DB203A00FA8E
:1005A00002F1002070479140C2F1200320FA03F3CA
:1005B000194390407047202A04DB203A21FA02F0C8
:1005C0000021704721FA02F3D040C2F1200291408D
:1005D0000843194670470029A8BF7047401C4900CE
:1005E00008BF20F00100704710B4B0FA80FC00FA98
:1005F0000CF050EA010404BF10BC704749B1CCF1C3
:10060000200421FA04F411FA0CF118BF012121434E
:100610000843A3EB0C01CB1D4FEA00614FEA102009
:1006200042BF002010BC704700EBC35010440029AB
:10063000A4BF10BC7047401C490008BF20F0010057
:1006400010BC704710B5141E73F1000408DA401C8A
:1006500041F1000192185B411A4301D120F00100E1
:1006600010BD2DE9F04D92469B4611B1B1FA81F2D1
:1006700002E0B0FA80F220329046FFF78DFF044688
:100680000F4640EA0A0041EA0B0153465A46084326
:1006900013D0114653EA010019D0C8F14002504668
:1006A000FFF789FF05460E46504659464246FFF77A
:1006B00073FF084305D0012004E020463946BDE819
:1006C000F08D0020054346EAE0762C4337430A9834
:1006D0006305E40AA0EB08000022FD0A44EA47543F
:1006E0000A3002D500200146E9E7010510196941E9
:1006F000DDE9084500196941BDE8F04DA2E72DE9A3
:10070000FE4F804681EA0300C00F0C46009021F0A6
:10071000004123F00045B8EB0200A94105D2404654
:10072000214690461C460B46024623F000401043EB
:1007300047D0270DC7F30A00C3F30A510290401AAD
:10074000019040286BDAC3F3130040F4801B00983B
:10075000924620B10023D2EB030A63EB0B0B019806
:100760005946C0F140025046FFF716FF06460D46B7
:1007700050465946019A00F0ABF810EB0800614171
:10078000002487EA115284EAE7731A4340D0009AA2
:1007900062B3019A012A4FEA075215DC001B61EB94
:1007A00002014FF0004202EA0752CDE90042001C6C
:1007B00041F5801132462B46FFF753FF03B0BDE8E9
:1007C000F08F40462146F9E7001B61EB0201001C57
:1007D00041F5801300185B412018A2F5001747EB84
:1007E000030140EAD570B6196D4111E06D084FEA7A
:1007F000360645EAC0754FEA0752001B61EB02015D
:10080000001C41F5801149084FEA300000195141A0
:1008100032462B4603B0BDE8F04FFFF713BF0098F8
:10082000012240000023D0EB020263EBE07300984A
:1008300021464FEAE074B8EB000061EB0401E9E700
:1008400083F000435BE781F0004158E7C1F30A52AF
:10085000C1F3130140F2FF3341F480119A4202DAEE
:1008600000200146704740F233439A42A2F23342DD
:1008700002DC5242FFF79FBEFFF78EBE30B5041E6A
:1008800071F1000404DB4FF00044404264EB0101CD
:10089000141E73F1000405DB1C464FF00043524266
:1008A00063EB0403994208BF904230BD064C074DEC
:1008B00006E0E06840F0010394E807009847103430
:1008C000AC42F6D3FFF764FC3C4600085C460008E7
:1008D000202A06DBCB17203A41FA02F043EAE07304
:1008E00006E041FA02F3D040C2F1200291400843F1
:1008F0001946704770B51F4D04462DED048BB5F9B0
:100900000000FFF7F3FD9FED1C8B53EC182BFFF756
:100910000CFD9FED1B9B53EC192BFFF706FDFFF71A
:1009200009FEA060B5F90200FFF7E0FD53EC182BBB
:10093000FFF7FBFC53EC192BFFF7F7FCFFF7FAFD71
:100940006060B5F90400FFF7D1FD53EC182BFFF7F9
:10095000ECFC53EC192BFFF7E8FCFFF7EBFD2060F4
:10096000E88800EE100AB8EE400A84ED030ABDECF8
:10097000048B70BD2C430020000000000000003FED
:100980000000000000806640FEE70000FCB506465F
:100990004FF6FF7400200D46ADF8004041F22107EC
:1009A0008DF8040020E000BF16F8010B8DF804005C
:1009B00001A9084601F064FDBDF800009DF804108F
:1009C00080EA0120ADF800005FF00000BDF80010E3
:1009D0000A0402D587EA410101E004EA4101401C12
:1009E000ADF800100828F1DB6D1EDDD2694608461F
:1009F00001F030FDBDF800006040FCBD2DED048B22
:100A00008A4800F05FFF8A4802F062F8894802F0E5
:100A10005FF801228849894801F038FC01228849A1
:100A2000884801F033FCDFED888AB0EE682AF0EEEA
:100A3000681A9FED868AF2EE040AB0EE481A9FED1E
:100A4000849A8448B0EE490A834602F025F881482A
:100A5000B0EE682A4430F0EE681AB0EE481AF2EEB2
:100A6000040AB0EE490A824602F016F87948B0EE60
:100A7000682A8830F0EE681AB0EE481AF2EE040ADE
:100A8000B0EE490A814602F007F87248B0EE682AD3
:100A9000CC30F0EE681AB0EE481AF2EE040AB0EE6E
:100AA000490A804601F0F8FF634D00261435694C71
:100AB000AE806E80604F2E80B4F11004B5F9042032
:100AC000B5F90210B5F9000001F050FF7E80A4F8DE
:100AD000CE60A4F88A60A4F84660668078880A2808
:100AE000FCD36088B4F84620B4F88A30B4F8CE104D
:100AF00000EE100AB8EE401A9FED570AC1EE000A48
:100B000060EE880AC4ED010ADFED541A60EEA10A16
:100B10009FED532A94F90C0020EE821A00EE900A01
:100B2000F8EEE00A61EE200A01EE102AC4ED020A96
:100B3000F8EE412A82EE801A21EE081A84ED121A8C
:100B400021EE211A94F9500061EE022A01EE100AFA
:100B5000B8EEC11A22EE811A02EE903A84ED131A11
:100B6000F8EE622A82EE801A21EE081A84ED231A2A
:100B700021EE211A94F9940061EE022A01EE100A86
:100B8000B8EEC11A22EE811A02EE901A84ED241AF0
:100B9000B8EE621AC1EE002A22EE880A84ED340A09
:100BA00020EE210A94F9D80020EE021A00EE100A75
:100BB000B8EEC00A21EE000A84ED350AB4F900004F
:100BC00000EE100AB8EEC00ADFED268A584620EE85
:100BD000280A01F016FFB4F94400D4ED130A00EE20
:100BE000100A5046B8EEC00A20EE280A01F009FFAC
:100BF000B4F98800D4ED240A00EE100A4846B8EE95
:100C0000C00A20EE280A01F0FCFEB4F9CC00D4EDB5
:100C1000350A00EE100A4046B8EEC00A20EE280A57
:100C200001F0EFFE01F004FE48E700008803002019
:100C3000F80200204003002084000020D0030020A0
:100C40009E0000201404002000007A440000C842E6
:100C500000409C45E44100200000C343DB0F4940B5
:100C60008FC2753D6F12833A2DE9F0411D4C01276B
:100C7000204621780069052900D168B100260128A5
:100C80000ED010B10220C4E9030616490122BDE8C6
:100C9000F041154801F0FABA092214492761F6E734
:100CA000124D287A2228EDD1062128462661FFF729
:100CB0006DFE2081A979B1EB102F10D1E979C0B276
:100CC00088420CD1288841BA0648143001806988CE
:100CD00049BA4180A98849BA8180E660D5E7E760D2
:100CE000D3E7000084000020D00300202043002030
:100CF0007047022000F0BCB810B5202000F0B8F812
:100D0000802000F0B5F8BDE810404FF4007000F00E
:100D1000AFB872B6FEE72DE9F0410446876D00F0EA
:100D2000B1F9064694F835000025022806D0802047
:100D3000606584F834500120BDE8F08120680168C6
:100D400021F0160101602068416921F080014161B4
:100D5000206C08B9A06C20B12068016821F008015E
:100D600001602068016821F0010101600CE000F0E1
:100D700089F9801B052807D920206065032084F8A5
:100D8000350084F83450D7E720680068C007EED1FA
:100D900094F85C103F208840B860012084F835004A
:100DA00084F834500020C7E790F83510022903D0AA
:100DB0008021416501207047052180F835100068C9
:100DC000016821F0010101600020704770B5012524
:100DD000AE1E244C022814D0234AB0F5007F1CD04C
:100DE00080282BD020280BD1B4F8CE00401CA4F8CA
:100DF000CE000821104600F03FF978B384F8D8609F
:100E000070BD6088401C60800121184800F034F9F2
:100E100008B1267370BD257370BDB4F84600401C40
:100E2000A4F846004FF48071104600F025F910B187
:100E300084F8506070BD84F8505070BDB4F88A00DA
:100E4000401CA4F88A004021104600F015F910B1AA
:100E500084F8946070BD84F8945070BDFFE784F806
:100E6000D850FAE7D44100200004024000100240AC
:100E7000044910B50A68024202D00860FFF7A6FFD5
:100E800010BD0000143C01402DE9F84FDFF8BCA173
:100E90000022012503264FF00F090AF1040BAAF1E5
:100EA000040E00BF0B6805FA02F42340A34270D180
:100EB0000F7907F00307012F01D0022F16D18768A1
:100EC0004FEA420806FA08FC27EA0C07D1F80CC0E2
:100ED0000CFA08FC4CEA070CC0F808C04768A743A6
:100EE0000C79C4F3001494403C4344600C79E4430F
:100EF000A4070AD0C4684FEA420C06FA0CF7BC43B8
:100F00008F6807FA0CF72743C7600C7904F00304D5
:100F1000022C12D1D40800EB840CDCF820405707D7
:100F2000FF0E09FA07F824EA0804D1F8108008FA3D
:100F300007F848EA0408CCF8208004684FEA420C1D
:100F400006FA0CF7BC430F7907F0030707FA0CF712
:100F5000274307604C6814F4403F70D03C4C27682E
:100F600047F480472760246822F0030704F4804494
:100F70000094384C07EB040CDCF8084897074FEA5C
:100F8000177809FA08F7BC43334FB84202D100275B
:100F900024E054E0314FB84201D101271EE0304F28
:100FA000B84201D1022719E02E4FB84201D10327E0
:100FB00014E02D4FB84201D104270FE02B4FB84267
:100FC00001D105270AE02A4FB84201D1062705E0E2
:100FD000284FB84201D1072700E0082707FA08F791
:100FE0002743CCF80878DAF800405746D1F804C017
:100FF0009C435FEACC2C00D51C433C60DBF80040EE
:101000005F46D1F804C09C435FEA8C2C00D51C439A
:101010003C60DEF800407746D1F804C09C435FEAAC
:101020008C3C00D51C433C60084F083F3C68D1F81D
:1010300004C09C435FEACC3C00D51C433C60521C7E
:10104000102AFFF42FAFBDE8F88F0000083C0140E4
:1010500044380240003001400000024000040240D9
:1010600000080240000C0240001002400014024040
:1010700000180240001C02400069084000D0012016
:101080007047000001488068704700000C00002095
:101090000248816802781144816070470C0000208A
:1010A0000B4810B5016841F400710160016841F41A
:1010B00080610160016841F480710160032000F0EB
:1010C00099F80F2000F006F800F04AF8002010BD53
:1010D000003C024030B505461C4887B0002401683A
:1010E00041F001010160006806A900F001000090D4
:1010F00001A800F02BF900F059F915494000B0FBA8
:10110000F1F11548134A491E026040F2E732C0E986
:101110000324C0E90114846100F088FB040012D1AB
:101120000D4800F0CFFB04000DD1192000F034F879
:10113000102D07D200222946192000F03BF807485D
:10114000056000E0012407B0204630BD443802406D
:1011500040420F00000001409C04002010000020CD
:101160000C4882B0016841F480410160006800F4DD
:10117000804000900748001F016841F080510160E5
:101180000068002200F0805000900F21901E02B0F5
:1011900000F010B844380240002809DB00F01F02BC
:1011A000012191404009800000F1E020C0F80011C9
:1011B00070470000F0B40E4B1B680C46C3F30223CB
:1011C000C3F10705042D00D90425191D072901D2F3
:1011D000002300E0DB1E012606FA05F1491E21402E
:1011E00099409E40761E16403143F0BC01F0FCBF92
:1011F0000CED00E0064900F0070208684FF6FF0317
:10120000184040EA0220034A10430860704700007B
:101210000CED00E00000FA052DE9F0470E46050050
:1012200065D0DFF81481D8F80000F7B200F00700AD
:10123000B04207D288F80070D8F8000000F007002C
:10124000B04254D128683D4C810712D5400703D5E0
:10125000206840F4E05020602878000703D520681B
:1012600040F4604020602068A96820F0F000084346
:1012700020602878C0072DD03049686808390128D7
:1012800012D0022813D0032811D009688907002939
:101290002DDA216821F0030101432160FFF7F2FEFE
:1012A000814641F2883A0EE009688903EFE7096850
:1012B0008901ECE7FFF7E6FEA0EB0901514502D9F1
:1012C0000320BDE8F0872068696800F00C00B0EBEF
:1012D000810FEFD1D8F80010404601F00701B1426C
:1012E00007D90770006800F00700B04201D0012064
:1012F000E7E72878400705D52068E96820F4E05042
:10130000084320602878000706D52068296920F462
:10131000604040EAC100206000F058F82168084AA7
:10132000C1F30311515CC8400649086006480068D3
:10133000FFF7D0FE0020C4E7003C0240083802401E
:101340000C46000818000020100000200F22026048
:101350000C4A136803F003034360136803F0F003BF
:101360008360136803F4E053C36012684FF4E053E2
:1013700003EAD20202610448006800F00700086036
:101380007047000008380240003C0240044805490C
:1013900000680968044AC1F38221515CC840704763
:1013A00018000020083802401C460008044805497F
:1013B00000680968044AC1F34231515CC840704773
:1013C00018000020083802401C460008154810B5D7
:1013D000006810F00C02144813D04110042A0FD0FA
:1013E000082A0ED10F4C241F2268236802F03F0206
:1013F0005B0207D52068C0F38810A0FB010106E05E
:10140000084610BD2168C1F38811A1FB000100232B
:10141000FEF736FF2168C1F30141491C4900B0FBCA
:10142000F1F010BD083802400024F4002DE9F84F17
:1014300004006ED02078DFF84C93C007A9F10405B2
:101440004AD009F104000168C1F38101012908D0E3
:101450000068C0F3810002280AD1D9F800004002D8
:1014600006D52868800337D560680028E1D033E0CE
:101470006068B0F5803F10D0B0F5A02F286810D07C
:1014800020F480302860286820F48020286060687C
:10149000A8B1FFF7F7FD06460DE0286840F480305C
:1014A000F4E740F480202860F7E700BFFFF7EAFD8B
:1014B000801B642873D828688003F7D50CE0FFF7F9
:1014C000E1FD064605E000BFFFF7DCFD801B642858
:1014D000F0D828688003F7D42078DFF8AC82800742
:1014E0004FF0000A3ED5A748001D016811F00C0F0F
:1014F00008D00068C0F3810002280BD1D9F80000A1
:10150000400207D42868800716D5E068012800D17A
:1015100012E033E1E068B8B10120C8F80000FFF73D
:10152000B1FD064605E000BFFFF7ACFD801B0228B9
:10153000C0D828688007F7D52868216920F0F8000E
:1015400040EAC10028600DE0C8F800A0FFF79AFD4E
:10155000064604E0FFF796FD801B02281FD8286886
:101560008007F7D42078000722D5864F8748616925
:10157000703771B101210160FFF784FD064604E078
:10158000FFF780FD801B022809D838688007F7D54F
:101590000EE0C0F800A0FFF775FD064605E082E00A
:1015A000FFF770FD801B02287DD838688007F7D4CC
:1015B0002078400768D5DFF8CCB100270BF13C0B51
:1015C000DBF80000C0000BD4DBF8001041F08051C4
:1015D000CBF80010DBF80000012700F080500090ED
:1015E0006B4E3068C00510D4306840F480703060B5
:1015F000FFF748FD009005E0FFF744FD0099401A11
:10160000022850D83068C005F6D55E4EA0686C360A
:1016100001280FD00528306810D020F0010030607C
:10162000306820F004003060A068B8B1FFF72AFDF0
:1016300000900FE0306840F00100F4E740F0040053
:101640003060F7E7FFF71EFD0099411A41F288303C
:10165000814266D830688007F4D50EE0FFF712FDAE
:10166000009007E0FFF70EFD0099411A41F2883023
:10167000814256D830688007F4D42FB1DBF80010CF
:1016800021F08051CBF80010A069C8B33D49091D75
:101690000968C1F3810102294AD00228504607D0C7
:1016A000C8F8600000E03CE0FFF7ECFC04463BE0DB
:1016B0004746C8F86000FFF7E5FC064605E000BFB6
:1016C000FFF7E0FC801B02282BD828688001F7D4A4
:1016D000D4E907010843A16A2E4A490802EB0141F7
:1016E000626A41EA8211084394F82C1040EA0161D1
:1016F000C9F8001001203866FFF7C4FC044606E074
:101700003EE000BFFFF7BEFC001B022809D8286896
:101710008001F7D534E000BFFFF7B4FC001B0228BE
:1017200002D90320BDE8F88F28688001F4D427E0AF
:101730000128F7D0D9F80000E26900F48001914255
:101740001CD1226A00F03F01914217D147F6C071C7
:10175000626A0140B1EB821F10D1A26A4FF0FF33E1
:1017600000F4403103EB5202B1EB024F06D194F882
:101770002C1000F07060B0EB016F01D00120D1E7B8
:101780000020CFE70438024000004742800E474265
:10179000007000400000FFFF7047704770B590F880
:1017A0003C20012A32D0012480F83C40022280F8FB
:1017B0003D2003685A689D6822F070060A6832432B
:1017C0005A60134B02689A4214D0B2F1804F11D084
:1017D000104B9A420ED0104B9A420BD00F4B9A42AC
:1017E00008D00F4B9A4205D00E4B9A4202D00E4BB6
:1017F0009A4204D1496825F080031943916080F82A
:101800003D40002180F83C10084670BD022070BDAC
:10181000000001400004004000080040000C0040AF
:1018200000040140004001400018004010B50400D1
:1018300003D094F83D0010B107E0012010BD002056
:1018400084F83C00204600F01FF8022084F83D0098
:10185000211D206801F0C8F9012084F8460084F8B1
:101860003E0084F83F0084F8400084F8410084F88A
:10187000420084F8430084F8440084F8450084F86A
:101880003D00002010BD000008B500680B498842EB
:1018900012D10B48016841F0040101600068002288
:1018A00000F00400009005211E20FFF783FCBDE836
:1018B00008401E20FFF770BC08BD00000008004073
:1018C0004038024090F83D10012901D001207047B6
:1018D000022180F83D100168CA6842F00102CA6026
:1018E00000681149884214D0B0F1804F11D00F49DF
:1018F00088420ED00E4988420BD00E49884208D04B
:101900000D49884205D00D49884202D00C498842D1
:1019100004D1816801F00701062903D0016841F074
:1019200001010160002070470000014000040040F8
:1019300000080040000C004000040140004001404D
:101940000018004070B5044690F83C0000250128BE
:1019500017D0012684F83C60022084F83D002068FE
:10196000826822F0770222F47F4282600868502861
:1019700038D00DDC20284FD005DC90B3102811D1D1
:101980004AE0022070BD302846D040280AD13BE012
:1019900060282FD070280DD0B0F5805F03D0B0F54F
:1019A000005F12D0012584F83D60002084F83C00DF
:1019B000284670BDCB68D1E90121206801F085F986
:1019C0002068816841F0770109E0CB68D1E9012105
:1019D000206801F07AF92068816841F480418160D3
:1019E000E1E719E0CA684968206801F043FA50212C
:1019F000206806E0CA684968206801F04CFA602156
:101A0000206801F06CF9CEE7CA684968206801F0E7
:101A100031FA40212068F4E7226801461046F0E7D9
:101A2000704770B50446006801694FF00005C9436E
:101A3000890715D4C168C943890711D4E91E01611A
:101A400001202077206880698007204602D0FFF7B8
:101A5000E7FF04E000F0EAF8204600F099F9257766
:101A600020680169C943490717D4C168C9434907B8
:101A700013D46FF00401016102202077206880698F
:101A800010F4407F204602D0FFF7CAFF04E000F0C8
:101A9000CDF8204600F07CF9257720680169C9431C
:101AA000090716D4C168C943090712D46FF00801A9
:101AB0000161042020772068C0698007204602D099
:101AC000FFF7AEFF04E000F0B1F8204600F060F947
:101AD000257720680169C943C90617D4C168C9437D
:101AE000C90613D46FF01001016108202077206827
:101AF000C06910F4407F204602D0FFF791FF04E058
:101B000000F094F8204600F043F925772068016939
:101B1000C943C90708D1C168C943C90704D1891E8F
:101B20000161204600F09AF920680169C94309065D
:101B300009D4C168C943090605D46FF08001016169
:101B40002046FFF729FE20680169C943490609D4E8
:101B5000C168C943490605D46FF0400101612046C0
:101B600000F0A0F920680169C94389060BD4C16857
:101B7000C943890607D46FF0200101612046BDE802
:101B80007040FFF70ABE70BD30B587B0044614211F
:101B90006846FEF7BFFB2268002420490225204842
:101BA000B2F1804F28D01F4B9A4223D10A6842F0ED
:101BB00001020A600A6802F0010205920A6842F016
:101BC00002020A60096801F002010591C02100913A
:101BD000CDE901546946CDE90345FFF755F90320E6
:101BE0000090CDE9015410486946CDE9034500BF96
:101BF000FFF74AF907B030BD0A6842F001020A60F7
:101C0000096801F0010105910F210091CDE901540E
:101C10000121CDE903416946EAE70000303802407E
:101C2000000002400004004000040240704770B50C
:101C3000044690F83C0000260D4601280FD00120F4
:101C400084F83C006AB1042A1DD0082A2FD00C2A3F
:101C50003FD00126002084F83C00304670BD0220B1
:101C600070BD206801F044F82068816941F00801E6
:101C700081612068816921F00401816120688169A6
:101C80002A69114311E0206801F062F82068816937
:101C900041F4006181612068816921F48061816182
:101CA000206881692A6941EA02218161D2E72068BE
:101CB00001F084F82068C16941F00801C161206821
:101CC000C16921F00401C1612068C1692A69114319
:101CD00011E0206801F0A6F82068C16941F40061B4
:101CE000C1612068C16921F48061C1612068C16956
:101CF0002A6941EA0221C161ACE710B5040003D0B2
:101D000094F83D0010B107E0012010BD002084F8D8
:101D10003C00204600F01EF8022084F83D00211D02
:101D2000206800F061FF012084F8460084F83E003E
:101D300084F83F0084F8400084F8410084F84200B1
:101D400084F8430084F8440084F8450084F83D009A
:101D5000002010BD08B501680B48B1F1804F0BD0D1
:101D60000A4A914207D1016841F00201016000680E
:101D700000F00200009008BD016841F0010101601F
:101D8000006800F00100F5E7403802400004004020
:101D90007047000010B50446022249B104290ED054
:101DA000082913D094F84100012816D0012010BD55
:101DB00094F83E000128F9D184F83E200FE094F811
:101DC0003F000128F2D184F83F2008E094F8400059
:101DD0000128EBD184F8402001E084F84120012261
:101DE000206800F065FF16492068164A884201D035
:101DF000904203D1436C43F400434364206888421B
:101E000013D0B0F1804F10D00F4988420DD00F4948
:101E100088420AD00E49884207D0904205D00D4929
:101E2000884202D00C49884204D1816801F0070140
:101E3000062903D0016841F001010160002010BDB6
:101E40000000014000040140000400400008004080
:101E5000000C0040004001400018004010B504464E
:101E600000680D49884201D1FFF712F90B4A216839
:101E70000B48914205D14188491C41808188491C09
:101E800081808188B1F57A7F04D3C188491CC180E3
:101E90000021818010BD00000000014000080040CA
:101EA000840000207047704770470000F8B5016853
:101EB00004460868CA684B6910F00F0F4FF0000520
:101EC0005AD003F0010602F49077374365D0C1077A
:101ED00005D0D10503D5216C41F0010121644107F2
:101EE00005D5D90703D0216C41F002012164810797
:101EF00005D5D90703D0216C41F004012164010705
:101F000007D502F02001314303D0216C41F00801D4
:101F10002164216C00293BD0800604D5900602D5AF
:101F2000204600F0F9FF20684069216CC0F3801062
:101F300001F00801014320462BD000F0C6FF2068C5
:101F40004069400621D52068143050E8001F21F078
:101F5000400140E80012002AF5D1A06BA8B16C49FD
:101F60000165A06BFEF720FF002811D0A06B016D6A
:101F700001B0BDE8F040084783060ED593060CD5A6
:101F80002046BDE8F84000F0C7BF2046FFF78CFFB1
:101F9000F8BDFFF789FF2564F8BD266B2023012ECD
:101FA00079D1C60677D5D60675D5086848680090F9
:101FB0004869400640D5A16B086840680004000CE1
:101FC000EAD0A28D8242E7D9E085C869B0F5807F6A
:101FD0002DD020680C3050E8001F21F4807140E8BB
:101FE0000012002AF5D12068143050E8001F21F0BB
:101FF000010140E80012002AF5D12068143050E8B1
:10200000001F21F0400140E80012002AF5D184F8B9
:102010003E30256320680C3050E8001F21F010018D
:1020200040E80012002AF5D1A06BFEF774FEA08DE7
:10203000E18D401A81B229E0A08DE18D401A81B274
:10204000E08D0028A8D00029A6D020680C3050E8E8
:10205000002F22F4907240E80026002EF5D120686F
:10206000143050E8002F22F0010240E80026002E34
:10207000F5D184F83E30256320680C3050E8002FFD
:1020800022F0100240E80023002BF5D12046FFF794
:102090000AFFF8BDFFE705062BD5150629D594F8EC
:1020A0003D002128F5D1A068B0F5805F01D12069FD
:1020B000B0B1206A411C2162216800784860E08C40
:1020C000401E0004000CE084E3D12068C16821F0C8
:1020D0008001C1602068C16841F04001C160D8E75B
:1020E000206A0088C0F308004860206A801C2062D3
:1020F000E5E74006CDD55006CBD5CA68204622F08C
:102100004002CA6084F83D3000F079F9C1E7000070
:10211000BB2E000870B5040004D094F83D000025E3
:1021200010B106E0012070BD84F83C50204600F05C
:1021300023F8242084F83D002068C16821F4005170
:10214000C160204600F048FF2068016921F49041F9
:1021500001612068416921F02A0141612068C1685C
:1021600041F40051C1602564202084F83D0084F8CA
:102170003E00002070BD0000F0B587B00446142179
:102180006846FEF7C7F83A4A266800213948022314
:1021900003240725964222D1364A1432166846F0A7
:1021A00010061660126802F010020592026842F0F2
:1021B00001020260006802AA00F00100059082E8B6
:1021C00032006002CDE9000369462B48FEF75CFE51
:1021D000002205212520FEF7EDFF252024E0254AD9
:1021E000264F1032BE4223D1166846F400361660E0
:1021F000126802F400320592026842F0080202609E
:10220000006802AE00F00800059086E83200602009
:10221000CDE9000369461A48FEF736FE0022052183
:102220002620FEF7C7FF2620FEF7B6FF07B0F0BD59
:10223000144FBE42FAD1166846F480261660126822
:1022400002F480220592026842F0020202600068F5
:1022500002AE00F00200059086E832004FF44060C4
:10226000CDE9000369460848FEF70EFEDEE70000F0
:10227000001001403038024000000240004400409D
:10228000000C0240004800400004024090F83E303C
:10229000202B0ED159B152B190F83C30012B08D00F
:1022A000012380F83C300023036300F01BBF0120B2
:1022B000704702207047000070B520490068096827
:1022C000884233D11E4C2178552901D16078B0B1B4
:1022D00060780025012815D0502823D35A2921D809
:1022E000184900F066FF1749097A88421AD16078C8
:1022F0005038042816D2DFE800F01515151101201A
:10230000607010E050290DD35A290BD861700D4927
:102310000922BDE870400948FFF7B8BF09480C30F2
:10232000FEF7E8FA657001220549F2E7064988429E
:1023300003D1BDE87040FEF797BC70BD14040020C7
:102340009E0000202C430020001001402DE9F8439E
:10235000044690F83D001F4616460D4620284CD1F5
:10236000C5B1BEB194F83C00012846D0012084F8E4
:102370003C004FF00008C4F84080212084F83D0064
:10238000FEF780FEA6848146E684A068B0F5805FF3
:1023900003D004E00120BDE8F883206928B12E466F
:1023A0005FF0000584F83C800EE00026FAE780210B
:1023B000204600F0B4FEA0B9AEB116F8010B2168BA
:1023C0004860E08C401EE084E08C4B464FF00002F9
:1023D00000970028EBD14FF04001204600F09FFE0F
:1023E00030B10320D7E735F8020BC0F30800E6E769
:1023F000202084F83D000020CDE70220CBE7704785
:10240000FEE700002DED028B0D4C9FED0E8B82B090
:10241000A068FEF77CF805460E46B4F90000FEF70A
:1024200065F853EC182BFDF780FF41EC100BCDE95C
:10243000005653EC102B05A000F0C6FEE8E70000A4
:10244000D4410020FCA9F1D24D62503F25662C25D5
:10245000660D0A0030B500230D881A465FF00101B1
:1024600001FA02F4254205D0C2F10F0401FA04F486
:102470001C43A3B2521C102AF2DB038030BD0000C3
:1024800030B500230D781A465FF0010101FA02F41D
:10249000254205D0C2F1070401FA04F41C43E3B25B
:1024A000521C082AF2DB037030BD000010B596B054
:1024B0001C2211496846FDF714FF0021684601F00F
:1024C00032FB0E4C0C491C2220601C3107A8FDF782
:1024D00008FF002107A801F026FB074960601C22C5
:1024E00038310EA8FDF7FDFE00210EA801F01BFB00
:1024F000A06016B010BD0000B84500080000002024
:1025000070B586B014216846FDF704FF30480024FA
:10251000016841F080010160016801F080010591CE
:10252000016841F001010160016801F001010591BC
:10253000016841F002010160016801F002010591AA
:10254000016841F008010160016801F0080105918E
:10255000016841F01001016000681E4E00F010009B
:1025600005904FF4A470CDE900046946304602940A
:10257000FEF78AFC4FF428704FF48815CDE900056A
:10258000694602943046FEF77FFC0120CDE9000445
:10259000114E694630460294FEF776FC0220CDE9E2
:1025A0000005694602943046FEF76EFC0022114693
:1025B0000720FEF7FFFD0720FEF7EEFD0022114683
:1025C0001720FEF7F7FD1720FEF7E6FD06B070BDF9
:1025D00030380240000402400010024010B58AB0BA
:1025E000002407941C2168460894FDF793FE2248B6
:1025F0004FF080410160A721C0E901144FF47A71C6
:10260000C0E903148461FFF778FB08B1FEF781FB92
:10261000079407A918480894FFF7C0F808B1FEF717
:1026200078FB6020CDE9000402940022694612483C
:102630000494FFF7FCFA08B1FEF76BFB042269462D
:102640000D48FFF7F4FA08B1FEF763FB082269466C
:102650000948FFF7ECFA08B1FEF75BFB0C2269466C
:102660000548FFF7E4FA08B1FEF753FB0248FFF70D
:102670008BFA0AB010BD0000F802002010B58AB035
:10268000002407941C2168460894FDF743FE224865
:1026900020490160A721C0E901144FF47A71C0E913
:1026A00003148461FFF729FB08B1FEF732FB07949E
:1026B00007A919480894FFF771F808B1FEF729FB3C
:1026C0006020CDE900040294002269461248049477
:1026D000FFF7ADFA08B1FEF71CFB042269460E486D
:1026E000FFF7A5FA08B1FEF714FB082269460A486D
:1026F000FFF79DFA08B1FEF70CFB0C22694606486D
:10270000FFF795FA08B1FEF704FB0348FFF73CFA20
:102710000AB010BD000400404003002010B586B090
:1027200000241748009401940294039404941349DC
:10273000059401605321C0E901144FF47A71C0E996
:1027400003148461FFF772F808B1FEF7E2FA4FF460
:102750008050009069460A48FFF7F4F808B1FEF788
:10276000D8FA049404A906480594FFF717F800283E
:1027700001D0FEF7CEFA06B010BD00000008004000
:10278000880300200C4810B50A4901604FF4165127
:102790004160002181600C22C160C0E904128161A6
:1027A000C161FFF7B7FC002803D0BDE81040FEF779
:1027B000B0BA10BD00100140D00300200C4810B585
:1027C0000A4901604FF4E131416000218160042237
:1027D000C160C0E904128161C161FFF79BFC002860
:1027E00003D0BDE81040FEF794BA10BD004400408D
:1027F000140400200C4810B50A4901604FF4E1317F
:102800004160002181600C22C160C0E90412816135
:10281000C161FFF77FFC002803D0BDE81040FEF740
:1028200078BA10BD0048004058040020FEE70000C0
:10283000F0B5494A4A48494B92ED0D0A494C10EE11
:10284000107A002106684FF47A759F4207DDBCEECE
:10285000C00A10EE107A77630668B16312E010EEDA
:10286000107AA7420BD9716392ED0D0A0768B1EE99
:10287000400ABCEEC00A10EE106ABE6302E0B56307
:102880000668756392ED1E0A10EE106A9E4208DD1E
:10289000BCEEC00A076810EE106AFE6300680164AF
:1028A00013E010EE106AA64206680BD9F16392EDB0
:1028B0001E0A0068B1EE400ABCEEC00A10EE106AB3
:1028C000066402E035640068C56392ED2F0A26486D
:1028D00010EE106A9E4208DDBCEEC00A076810EEDA
:1028E000106A7E630668B16313E010EE106AA642B8
:1028F00006680BD9716392ED2F0A0768B1EE400AA2
:10290000BCEEC00A10EE106ABE6302E0B563066852
:10291000756392ED400A10EE106A9E4206DDBCEE31
:10292000C00A036810EE102ADA630DE010EE103AC8
:10293000A3420CD90368D96392ED400AB1EE400A74
:10294000BCEEC00A10EE101A00680164F0BD016808
:102950000D640068C563F0BDD44100200000C8428A
:10296000F80200200000C8C240030020C31770B561
:1029700000EB93708310C81701EB90708410D01790
:1029800002EB90708110E51868181E1B4042761A01
:1029900002B26D1A1948E31A591A028036B20BB204
:1029A000A0F844602DB24FF47A74A0F888506142C8
:1029B000A0F8CC30A24201DD048002E08A4200DAB5
:1029C0000180A64202DDA0F8444003E08E4201DA15
:1029D000A0F84410A54202DDA0F8884003E08D4233
:1029E00001DAA0F88810A34202DDA0F8CC4070BD47
:1029F0008B42FCDAA0F8CC1070BD0000D44100205E
:102A0000FEE730EE600A80ED030AD0ED060A70EEB4
:102A1000800AC0ED060A90ED001A61EE001AC0EDC2
:102A20000A1A90ED011A61EE200AC0ED0B0A90ED32
:102A3000041A90ED022A30EE411A21EE022A80EDAE
:102A40000C2A90ED071AF4EEC10AF1EE10FA06DC3A
:102A5000B1EE411AF4EEC10AF1EE10FA01D280EDA6
:102A60000B1AD0ED0B0A71EEA00A70EE820AC0EDCF
:102A7000090A90ED081AF4EEC10AF1EE10FA06DC2C
:102A8000B1EE411AF4EEC10AF1EE10FA01D280ED76
:102A9000091A80ED040A7047C0ED071A80ED082A74
:102AA00080EC030A9FED090A80ED090A80ED0C0A0B
:102AB00080ED0B0A80ED0A0A80ED060A80ED050A1A
:102AC00080ED040A80ED030A70470000000000005A
:102AD00010B504460021FFF75DF904212046FFF7F9
:102AE00059F908212046FFF755F92046BDE8104066
:102AF0000C21FFF74FB9012001F009F8FBE70000B6
:102B000010B5502080F31188BFF34F8FBFF36F8F44
:102B100001F08AFC18B104494FF080500860002091
:102B200080F3118810BD000004ED00E030B593B0D3
:102B300030216846FDF7EEFB14210CA8FDF7EAFBF7
:102B40001D480025016841F080510160006800F0D7
:102B5000805011901948016841F48041016000687B
:102B6000022400F4804011900120009000040190A4
:102B70008001CDE9064008AA0420A82182E81300BC
:102B80000B906846FEF752FC08B172B6FEE70CA93E
:102B90000F2081E831004FF4A0500F904FF4805087
:102BA000109005210CA8FEF737FB002801D072B663
:102BB000FEE713B030BD0000403802400070004016
:102BC0000248016841F470010160704788ED00E03F
:102BD0000148FEF726BF00009C0400200148FEF7D4
:102BE00020BF000088030020F0B50268254C264D68
:102BF000264E274F274B4FF0804CA04209D060450E
:102C000007D0A84205D0B04203D0B84201D09842C4
:102C100004D122F0700E4A6842EA0E02A0421BD094
:102C2000604519D0A84217D0B04215D0B84213D091
:102C3000984211D0184DA8420ED0184DA8420BD082
:102C4000174DA84208D0174DA84205D0164DA842EE
:102C500002D0164DA84203D122F44075CA682A4317
:102C60004D6922F080022A4302608A68C2620A68C3
:102C70008262A04201D0984201D109690163012119
:102C80004161F0BD00000140000400400008004028
:102C9000000C00400004014000400140004401409D
:102CA0000048014000180040001C00400020004087
:102CB00010B501F01F030121046A99408C4304629E
:102CC000016A9A401143016210BD10B5846842EA5E
:102CD000032224F47F440A432243826010BD8268A9
:102CE00022F070020A4342F0070181607047000041
:102CF000F0B5026A22F001020262036A4268846946
:102D0000124E24F073050C682C4323F002058B68E7
:102D10002B430D4DA84201D0B04205D123F0080746
:102D2000CB683B4323F00403A84201D0B04205D155
:102D30004D6922F4407215438A692A4342608461D6
:102D4000496841630362F0BD000001400004014096
:102D5000F0B5026A22F010020262026A43688469D6
:102D60000D6824F4E64444EA05248D6822F020022C
:102D700042EA05120F4D104EA84201D0B04206D1D2
:102D8000CF6822F0800242EA071222F04002A842F5
:102D900001D0B04207D14D6923F4406343EA850373
:102DA0008D6943EA850343608461496881630262F7
:102DB000F0BD00000000014000040140F0B5026ACF
:102DC00022F480720262026A4368C46922F40072CB
:102DD00024F073050C68124E2C438D6842EA0522DC
:102DE0000E4DA84201D0B04206D1CF6822F4006255
:102DF00042EA072222F48062A84201D0B04207D101
:102E00004D6923F4405343EA05138D6943EA0513E2
:102E10004360C4614968C1630262F0BD00000140C3
:102E20000004014030B5026A22F480520262046A52
:102E30004268C3690D6823F4E64343EA05238D68BD
:102E400024F4005444EA0534084DA84202D0084D49
:102E5000A84204D14D6922F4804242EA85124260C0
:102E6000C36149680164046230BD00000000014094
:102E70000004014010B5036A046A24F001040462EE
:102E8000846924F0F00444EA021423F00A020A439D
:102E90008461026210BD10B5036A23F0100303625F
:102EA0008369046A23F4704343EA023224F0A003E6
:102EB00043EA01118261016210BD10B5806B0021EF
:102EC000C185C184FEF7F0FF10BD01680C3151E8E7
:102ED000002F22F4907241E80023002BF5D1016805
:102EE000143151E8002F22F0010241E80023002BA9
:102EF000F5D1016B012909D101680C3151E8002F8E
:102F000022F0100241E80023002BF5D1202180F8A7
:102F10003E1000210163704708B590F83E10222949
:102F200001D0022008BD82684FF480539A4201D13B
:102F3000016921B1816A9A421BD04AB10AE0026854
:102F4000816A5268C2F308020A80816A891C08E01B
:102F5000026972B10268526802F07F020A70816AE7
:102F6000491C8162C18D491E0904090CC18503D029
:102F700019E002685268F1E70168CA6822F020028D
:102F8000CA600168CA6822F48072CA6001684A692E
:102F900022F001024A61202180F83E10016B0129D4
:102FA00003D0FFF789F9002008BD00210163016803
:102FB0000C3151E8002F22F0100241E80023002BD1
:102FC000F5D101680A68D20602D50A6849680091FD
:102FD000818DFEF768FFE6E770B504460068016979
:102FE000E26821F44051114301612169A068E2695E
:102FF00008436169114308432168CA6849F20C63B8
:103000009A430243CA6020684169A26921F4407171
:103010001143416131492068884202D030498842D9
:1030200002D1FEF7C3F901E0FEF7B0F9E26900232F
:10303000192164253226B2F5004F626828D0A0FB22
:103040000101930F9200FDF71BF90146B0FBF5F06B
:103050006FF01802504301EB800006EB0010B0FB4C
:10306000F5F000F0F002B1FBF5F002EB0012B1FB5D
:10307000F5F06FF01803584301EB800006EB0010E9
:10308000B0FBF5F000F00F0021681044886070BDBF
:10309000A0FB010192185B41FDF7F2F80146B0FB7D
:1030A000F5F00201B1FBF5F06FF01803584301EBA6
:1030B000800006EBC000B0FBF5F000F0F80002EB7A
:1030C0004002B1FBF5F0584301EB800006EBC00075
:1030D000B0FBF5F000F00700D6E70000001001405B
:1030E0000014014081628285C28500210164222290
:1030F00080F83E2080F83C10016921B10168CA685F
:1031000042F48072CA6001684A6942F001024A6171
:103110000068C16841F02001C160002070472DE9BE
:10312000F041984617460E460446069D27E0681C67
:1031300025D02DB1FDF7A6FFA0EB0800A8421ED9AF
:1031400020680C3050E8001F21F4D07140E80012D4
:10315000002AF5D12068143050E8001F21F0010149
:1031600040E80012002AF5D1202084F83D0084F8C0
:103170003E00002084F83C000320BDE8F081206878
:10318000006836EA000004D00020B842CFD000200A
:10319000F3E70120F9E700000148FEF787BE0000D1
:1031A000D00300200148FEF781BE00001404002077
:1031B000FEE75530C0B200228B5C521C1844D2B2DC
:1031C000C0B2082AF8D370470FB4054B10B503A955
:1031D000044A029800F0DAF810BC5DF814FB000015
:1031E000BD3A0008A00000200907090E002804DBF2
:1031F00000F1E02080F80014704700F00F0000F1AB
:10320000E02080F8141D704702E008C8121F08C1B2
:10321000002AFAD170477047002001E001C1121F57
:10322000002AFBD1704700002DE9FF5FDDE9022095
:10323000010DDDF838B0024318D044F61050A1F269
:10324000FF3141430D140F98012820D0A5EB0B004E
:10325000401C5FEA000A4FF00004474EDFF81C9163
:10326000A046504616D5CAF1000728E00F98012461
:1032700043A2012808D0002100980F9BC0E900213B
:10328000C0E90243BDE8FF9F6FEA0B01F4E7CBF111
:103290000000DEE7074612E0F80707D02246334673
:1032A00040464946FDF741F8804689462246334666
:1032B00010461946FDF739F804460E467F10002FD8
:1032C000EAD1DDE90201BAF1000F42464B4602DACB
:1032D000FDF72BF801E0FDF79AF804460E460022B0
:1032E000284BFDF7CBFA03D84FF0FF30014607E03B
:1032F0000022254B20463146FDF701FAFDF7A6FADC
:10330000102409E0002C0ADB0A220023FCF7B8FF96
:10331000019B30321A55641E50EA0102F2D1641C3E
:10332000019AC4F1110314440F9A012A03D0012217
:1033300008430DD10AE0084304D000204FF0110BE0
:103340000F9080E7A3EB0B056D1E0DE05B4504DDE0
:103350004FF0000205F1010504E003DA4FF000022E
:10336000A5F10105002AECD000980F99C0E90231BF
:10337000C0E9004586E70000000024400000F03F5F
:10338000300000000000F0430000E03F2DE9FF4F57
:1033900095B09B468946064600250FE2252877D141
:1033A00000242746F84A0121059400E0044316F85A
:1033B000013F203B01FA03F01042F7D130782A2870
:1033C00011D06FF02F033078A0F13002092A16D8FF
:1033D000059A44F0020402EB820203EB420210441D
:1033E000761C0590EFE759F8042B0592002A03DAC2
:1033F000504244F40054059044F00204761C3078A6
:103400002E2816D116F8010F44F004042A280DD0F6
:103410006FF02F023078A0F13003092B09D807EBA9
:10342000870302EB4303C718761CF3E759F8047BC4
:10343000761C30786C280FD006DC4C2817D0682812
:103440000DD06A2814D104E0742810D07A280FD146
:103450000DE044F400140AE044F4801401E044F464
:1034600040147278824202D104F58014761C761CD6
:10347000307866280BD013DC582877D009DC002878
:1034800075D04528F6D04628F4D047281AD19DE1BA
:1034900018E0632835D0642879D0652812D195E1E9
:1034A000702873D008DC6728F1D069286FD06E28A7
:1034B0000DD06F2806D1B5E073282CD0752875D0B3
:1034C000782874D05A46179990476D1C75E1C4F35B
:1034D0000250022809D003280DD0D9F80010042882
:1034E0000DD00D6009F1040967E1D9F80010EA1761
:1034F000C1E90052F6E7D9F800100D80F2E70D702F
:10350000F0E719F8041B8DF8001000208DF8010079
:10351000EA46012003E059F804AB4FF0FF306107A1
:103520004FF0000102D40DE008F101018846B942D4
:103530000FDA8045F8DB1AF808100029F4D108E00A
:1035400008F1010188468142FADB1AF808100029C7
:10355000F6D105985B46A0EB080721463846179A36
:1035600000F094FA284400EB080507E04DE029E15B
:103570000DE01AF8010B5A4617999047B8F1010867
:10358000F7D25B4621463846179A13E142E00A22F9
:103590000092C4F302524FF0000A022A08D059F8F0
:1035A00004CB032A4FEAEC710AD00DE029E02AE0AF
:1035B00009F1070121F00702F2E802C1914609E092
:1035C0000FFA8CFC4FEAEC71042A03D14FFA8CFC01
:1035D0004FEAEC71002907DA0A460021DCF1000C01
:1035E00061EB02012D2202E0220504D52B228DF889
:1035F0000420012203E0E20701D02022F7E79046F1
:1036000059E00A2102E010220DE010214FF0000ADB
:1036100000910BE010224FF0000A44F00404082748
:10362000009203E008224FF0000A0092C4F3025215
:10363000022A05D059F804CB0021032A08D009E05A
:1036400009F1070121F00702F2E802C1914605E005
:103650001FFA8CFC042A01D10CF0FF0C4FF000087B
:10366000220728D5702806D0009B83F0100353EA68
:103670000A0305D00EE040228DF80420012208E064
:103680005CEA010206D030228DF804208DF8050096
:1036900002229046009B83F0080353EA0A030AD1F2
:1036A0005CEA010201D1620705D530228DF80420C1
:1036B0004FF001087F1E582804D034A003900EA8B4
:1036C00002900DE036A0F9E753466046009AFCF7F9
:1036D000D7FD84460398825C0298401E02900270D7
:1036E0005CEA0100F0D1029806A9081A00F1200A4C
:1036F000600702D524F4803400E00127574502DD3D
:10370000A7EB0A0000E0002000EB0A0100900598FA
:103710004144401A0590E00306D45B462146179ABF
:10372000059800F0B3F90544002706E001A85A46C1
:10373000C05D179990476D1C7F1C4745F6DBE00381
:103740000CD55B462146179A059800F09FF9054471
:1037500004E030205A46179990476D1C0099481E86
:1037600000900029F5DC08E0029802995A4600789A
:10377000491C0291179990476D1CBAF10001AAF1FA
:10378000010AF1DC65E10000092801003031323323
:10379000343536373839616263646566000000008D
:1037A0003031323334353637383941424344454677
:1037B0000000000000F058F90544761C307800281D
:1037C0007FF4ECAD19B02846BDE8F08F620700D455
:1037D000062709F1070222F0070CFCE80223E14664
:1037E00003F000485FEA080C02D00FF2702C0DE0E5
:1037F0005FEA045C02D50FF2682C07E05FEAC47C44
:1038000002D00FF2602C01E0AFF2700C4FF0FF38E5
:1038100023F00043CDF850C065280CD006DC4528C5
:1038200009D046281DD047283DD13DE0662818D054
:1038300067287ED138E00021112F01DB112000E044
:10384000781CCDE9000106A90EA8FFF7EDFCDDE923
:103850000F010E9A03910021009207F1010A0491D1
:103860004DE04FF000400097CDE9011006A90EA8E9
:10387000FFF7DAFCDDE90F0203920E9B119900229B
:10388000DDF80CA00093049211B9791C00EB010A39
:10389000B7EB0A0004D4C0F1FF3007F1010A04902D
:1038A000AAEB0700019044E0012F00DA0127002174
:1038B000112F01DD112000E03846CDE9000106A9F5
:1038C0000EA8FFF7B1FCDDE90F010E9A039100216C
:1038D00004910092BA4621070CD40399514500DAAD
:1038E0008A46BAF1010F05DD009AAAF10101515C87
:1038F000302908D0B84202DA10F1040F06DA0121AB
:10390000CDE9011015E0AAF10101E9E7002805DC85
:10391000049901440491AAEB000102E0411C5145C5
:1039200000DD8A460499401A401C01904FF0004087
:103930000290200704D40198504501DBCDF80480A3
:1039400000208DF84F0002980DF14F07B0F1004FA5
:1039500025D02B200E9002984FF0020800280CDA98
:10396000404202902D200E9007E00A210298FCF7B9
:10397000FDFD3031029007F8011DB8F10001A8F1FA
:103980000108F2DC02980028EFD1791E0E98087029
:10399000307800F0200040F0450007F8020D12A832
:1039A000C01B00F107081498007800B1012000EB5B
:1039B0000A01019801EBE07105984144401A401E4C
:1039C0000590E00306D45B462146179A059800F05F
:1039D0005DF805441498007818B15A461799904735
:1039E0006D1CE00324D55B462146179A059800F02C
:1039F0004DF805441CE00498002807DBDDE90301CD
:103A0000884203DD0098405C179901E01799302047
:103A10005A469047049805F10105401C049001980E
:103A2000401E019004D12E205A46179990476D1CD4
:103A3000BAF10001AAF1010ADDDC05E017F8010B7B
:103A40005A46179990476D1CB8F10001A8F101087A
:103A5000F4DC5B462146179A0598ABE62D00000082
:103A60002B000000200000002DE9F0410446002555
:103A70001E461746880404D405E039462020B04786
:103A80006D1C641EF9D52846BDE8F0812DE9F04192
:103A9000044600251E469046C80301D5302700E0A5
:103AA0002027880404D505E041463846B0476D1C00
:103AB000641EF9D52846BDE8F081000013B54FF427
:103AC0007A73012269460248FEF740FC00981CBD4B
:103AD00058040020FDF7E4FAFFF728F8FEF710FD80
:103AE000FEF77CFDFEF7CAFDFEF718FEFEF74AFE64
:103AF000FEF764FEFEF77EFEFEF7D8FC00F00EF83F
:103B0000FEE701460020842900D0C81C704710B58C
:103B100000B9012000F024FB002010BD10B500F01A
:103B200045FB002010BD7FB50D4604464169B0F944
:103B3000080081B1A16971B1FFF7E3FFD4E9051273
:103B40008DE80700D4E900102B46226900F041FC03
:103B5000039004B070BDFFF7D4FF03A9CDE90001C5
:103B6000208A2B4682B2D4E9001000F005FC01281F
:103B700001D00020EDE70398EBE700002DE9F041CC
:103B8000184C0F460546E6682068001D00F020FA34
:103B900038B9206890F82C100120884021698143B1
:103BA0002161681C07D137B12168BDE8F0410E489A
:103BB000091D00F051BA20683544B54245602168BE
:103BC00005D2A06BBDE8F041091D00F02DBA606B75
:103BD000091D00F029FAA06A854200D2A562BDE85D
:103BE000F08100001C000020C00500202DE9F041FC
:103BF000054600F03DFA2E4CA068401CA0602068ED
:103C00002C4F10B1606940B32DE02560A0680128F9
:103C100029D1002606EB860007EB800000F0F6F9BC
:103C2000761C072EF6D323488C3000F0EFF921489C
:103C3000A03000F0EBF91F48B43000F0E7F91D4860
:103C4000C83000F0E3F91B48DC3000F0DFF9194818
:103C50008C3060631430A06305E02068E96AC06AB4
:103C6000884200D82560606A401C6062E96A0120D1
:103C7000226988401043206101EB810007EB80003E
:103C8000291D00F0E9F900F013FA606900280CD052
:103C90002068E96AC06A884207D207494FF080501D
:103CA0000860BFF34F8FBFF36F8FBDE8F081000056
:103CB0001C000020E404002004ED00E010B50446E0
:103CC00090F8510058B101280CD002280FD0502094
:103CD00080F31188BFF34F8FBFF36F8FFEE7206B28
:103CE00000F0FAF92046BDE8104000F0F5B910BD2B
:103CF00010484FF47051420706D0C01D0D4920F006
:103D00000700411AC1F570510B4A00230144C2E972
:103D100000030839183A21F0070111604B600B606D
:103D20000B1AC0E9001393604FF0004053605061DC
:103D300070470000D405002070000020144E154C80
:103D4000A6F1C8074FF08058DFF84C9012E000BF92
:103D500000F08EF9F068C568281D00F039F9A068F8
:103D6000401EA0606068401E606000F0A1F9284617
:103D7000FFF7A4FF60680028EAD138680128F9D964
:103D8000C9F80080BFF34F8FBFF36F8FF2E70000D9
:103D9000AC0500201C00002004ED00E02DE9F047F8
:103DA0009A46DDE9098481466FF00303206B03EB3B
:103DB00082021044089E20F00707780707D05020A1
:103DC00080F31188BFF34F8FBFF36F8FFEE700259D
:103DD00061B1002023180A5C83F834200A5C12B118
:103DE000401C1028F6D384F8435001E084F8345086
:103DF000072E00D30626E662C4E91165201D00F0F7
:103E000010F904F1180000F00CF92461C6F1070064
:103E10006462A061E56484F85050524649463846D1
:103E200000F0C0F82060B8F1000F01D0C8F80040E1
:103E3000BDE8F08730B5114900E011460A688242BA
:103E4000FBD34B685C18844203D140681844486037
:103E5000084643681C18944209D1084C183C246851
:103E6000A24209D052681A4442600A68126802608D
:103E7000814200D0086030BD0460F9E77000002086
:103E80000648416B096829B1416BC968C96849682E
:103E9000816270474FF0FF31FAE700001C000020FC
:103EA00008484068401C4FF0500080F3118804D04F
:103EB000BFF34F8FBFF36F8FFEE7BFF34F8FBFF39B
:103EC0006F8FFEE7780000202DE9F04105460027BE
:103ED00000F0A2F9324E306808B9FFF709FF7069A7
:103EE00005424ED1C5B3083568070ED005F007006E
:103EF000C0F108000544680707D0502080F31188FE
:103F0000BFF34F8FBFF36F8FFEE72DB3706885420D
:103F100037D82348183001460C6801E020460C468B
:103F20006168A94202D221680029F7D131688C4228
:103F300027D007682168016060680837411B102995
:103F40000FD96019420708D0502080F31188BFF3C1
:103F50004F8FBFF36F8FFEE713E041606560FFF79F
:103F600069FF61687068401A7060B268904200D260
:103F7000B060706901430020C4E90001F068401C92
:103F8000F06000F0B7FA780707D0502080F311886E
:103F9000BFF34F8FBFF36F8FFEE73846BDE8F08168
:103FA0005800002010B5031F4FF080741C601B1FC9
:103FB00021F001011960191F044B0B6014390A60CC
:103FC000091F6FF0020244380A6010BDA13E0008CC
:103FD000D0E9013201699A60D0E901235A604A6848
:103FE000824201D182684A60002202610868401E54
:103FF0000860086870470000034B036003F1540039
:104000000860802010607047A400002000F10801C3
:104010004FF0FF32C0E90112C1600161002101606F
:10402000704700210161704730B50B685A1C02D0FF
:1040300000F1080202E0026904E0224654682568A3
:104040009D42FAD953684B6099608A60516008615B
:104050000168491C016030BD42684A6093688B600A
:1040600093685960916008610168491C016070475C
:10407000502080F31188BFF34F8FBFF36F8F0A4931
:104080004868401C486001280CD10848006810F0BE
:10409000FF0F07D0502080F31188BFF34F8FBFF37D
:1040A0006F8FFEE7704700007800002004ED00E00D
:1040B0000849486828B1401E486001D180F3118842
:1040C0007047502080F31188BFF34F8FBFF36F8F7D
:1040D000FEE700007800002070B500282AD0164DB9
:1040E000A0F1080460686969084207D1502080F394
:1040F0001188BFF34F8FBFF36F8FFEE722683AB18D
:10410000502080F31188BFF34F8FBFF36F8FFEE70E
:104110008843606000F080F86068696808446860FF
:104120002046FFF787FE2869401C2861BDE87040E3
:1041300000F0E0B970BD0000580000204FF0E02012
:1041400000210161816105494FF47A720968B1FB70
:10415000F2F1491E416107210161704718000020FA
:1041600010B5020014D00F48006B38B1502080F316
:104170001188BFF34F8FBFF36F8FFEE700F04CF84D
:1041800000211046FFF7FAFC00F0B4F9002807D12F
:1041900005494FF080500860BFF34F8FBFF36F8F1A
:1041A00010BD00001C00002004ED00E010B586B03A
:1041B0000024039405AA04A903A80494FFF71CFF94
:1041C000DDE903010094CDE9011000230EA11048A0
:1041D000059A00F0FEF80F490028C86211D050205F
:1041E00080F31188BFF34F8FBFF36F8F4FF0FF3015
:1041F000886201204861CC6006B0BDE8104000F044
:1042000041B806B010BD000049444C450000000014
:104210003D3D00081C0000200248016B491C016361
:10422000704700001C0000201448016B11B10121EF
:10423000C16170470021C1610169B1FA81F1C1F129
:104240001F0101EB81020E4951F822306BB101EBE5
:10425000820101F108034A6852684A609A4201D11A
:1042600052684A60D16801607047502080F311881D
:10427000BFF34F8FBFF36F8FFEE700001C000020DD
:10428000E40400201CB537480168374A914207D141
:10429000502080F31188BFF34F8FBFF36F8FFEE77D
:1042A00000683149491E884207D1502080F31188A7
:1042B000BFF34F8FBFF36F8FFEE72C490878019053
:1042C000FF20087008788DF800009DF800009DF828
:1042D000002000F0F000904207D0502080F31188B9
:1042E000BFF34F8FBFF36F8FFEE79DF80000204CA8
:1042F00000F0500020700720A06005E09DF800202D
:1043000052008DF80020401E9DF800201206F5D4C2
:10431000A060032807D0502080F31188BFF34F8F8F
:10432000BFF36F8FFEE74FF44070A06001980870F4
:104330000C482030016841F470010160016841F0CF
:1043400070410160FFF7FAFE00206060FBF74AFF52
:104350000848016841F040410160FBF72FFF002051
:104360001CBD000000ED00E071C20F4100E400E060
:104370007800002034EF00E02DE9FF5F8346DDE99F
:104380000E87994616468A469000FFF79DFD050068
:104390001CD05420FFF798FD040014D000202563A2
:1043A00084F85100CDE90240CDE900874B46324602
:1043B00051465846FFF7F2FC2046FFF717FC012054
:1043C00004B0BDE8F09F2846FFF786FE4FF0FF30AF
:1043D000F6E7F0B585B0DDE90B640A9DA6B1DCB166
:1043E000542700972663022684F85160002604AF04
:1043F000CDE90246CDE90057FFF7D0FC2046FFF794
:10440000F5FB049805B0F0BD502080F31188BFF390
:104410004F8FBFF36F8FFEE7502080F31188BFF3FB
:104420004F8FBFF36F8FFEE72DE9F0412F4C002631
:10443000206B28B1A069401CA0613046BDE8F08126
:10444000E5686D1CE56013D1606B006838B15020E1
:1044500080F31188BFF34F8FBFF36F8FFEE7606B60
:10446000A16B6163A063206A401C2062FFF708FD16
:10447000A06ADFF87C80854209D3606B0068A0B138
:10448000606BC068C7687868854211D2A0622068F6
:10449000C06A00EB800158F82100012800D90126EC
:1044A000E0690028C9D00126C7E74FF0FF30EDE7EB
:1044B000381DFFF78DFDB86A18B107F11800FFF736
:1044C00087FDF96A0120226988401043206101EBD1
:1044D000810108EB8100391DFFF7BEFDF86A2168F4
:1044E000C96A8842C9D30126C7E700001C00002022
:1044F000E40400202DE9F0472C4D00242746286BCA
:1045000038B1FFF7B5FD286B401E2863286B40B11A
:1045100046E0502080F31188BFF34F8FBFF36F8FB9
:10452000FEE7A968224E0120D1B3A6F1B409804666
:104530003068E8B1F068C46804F11800FFF748FD7E
:10454000201DFFF745FDE06A2A6908FA00F11143D2
:10455000296100EB800109EB8100211DFFF77CFD43
:10456000E06A2968C96A8842E2D3C5F81C80DFE79F
:104570000CB1FFF785FCAC6944B14646FFF754FF28
:1045800000B1EE61641EF9D10020A861E86938B17C
:104590000849012738070860BFF34F8FBFF36F8FBB
:1045A000FFF786FD3846BDE8F08700001C000020BC
:1045B0009805002004ED00E028460008F72A0008CE
:1045C000000000000000000080000000000000006B
:1045D0000000000034460008FD090008FDFF00004F
:1045E000000000008000000000000000000000004B
:1045F0002446000805240008FDFF0000000000001C
:10460000800000000000000000000000000000002A
:104610000000000001020304060708090000000072
:1046200001020304494D550064656661756C74545C
:1046300061736B0043686173736973005C460008C3
:1046400000000020A4000000083200080047000815
:10465000A4000020A446000018320008000000005A
:104660000000000000000000010000001000000039
:10467000000000000024F400000000000000000022
:10468000000000000000000000000000000000002A
:10469000000000000000000000000000000000001A
:1046A000000000000000000000000000000000000A
:1046B00000000000000000000000000000000000FA
:1046C00000000000000000000000000000000000EA
:1046D0000000000000000000AAAAAAAA0000000032
:1046E00000000000000000000000000000000000CA
:1046F00000000000000000000000000000000000BA
:040000050800018965
:00000001FF
